:020000040000FA
:1000000000400020C97A0100057B0100077B010048
:1000100000000000000000000000000000000000E0
:10002000000000000000000000000000097B01004B
:1000300000000000000000000B7B01000D7B0100B0
:100040000F7B0100F9AC0000797201000F7B010009
:100050000F7B0100000000000F7B01000F7B0100FF
:10006000494B01000D7001000F7B01000F7B010067
:100070000F7B01000F7B01000F7B01000F7B010054
:100080000F7B01000F7B01000F7B01000F7B010044
:100090000F7B01000F7B01000F7B0100854C0100ED
:1000A000954C01000F7B01000000000000000000E3
:1000B0000000000000000000000000000000000040
:1000C00010B5064C2378002B07D1054B002B02D02E
:1000D000044800E000BF0123237010BD1801002078
:1000E000000000001C4C0300044B10B5002B03D093
:1000F0000349044800E000BF10BDC04600000000F6
:100100001C0100201C4C0300164B002B00D1144B8B
:100110009D46402292029A1A924600218B460F4633
:100120001348144A121A25F006FA0F4B002B00D080
:1001300098470E4B002B00D0984700200021040068
:100140000D000D48002802D00C4800E000BF1DF053
:100150000DFA2000290024F0EBFE1DF053F9C046F3
:100160000000080000400020000000000000000027
:1001700010010020542E00200000000000000000AC
:1001800010B504000C2023F07BFA034B446003609D
:1001900001235B42836010BDF856020010B53E2873
:1001A00003D040282ED03C2813D1532924D013D873
:1001B0004C2921D007D8482950D049291CD04229A0
:1001C00007D1012348E04F2903D3502914D95129DD
:1001D00047D0254813F036FA68293FD006D864295D
:1001E0003FD0662908D06229F3D1EAE76C2903D011
:1001F000712936D06929ECD101230420002A00D0CE
:10020000136010BD512926D010D849290CD006D82A
:100210004229D6D0482918D00129DAD1D1E74C2972
:1002200002D0D6D34F29D4D30423E6E76629FBD0E6
:1002300006D86229C5D064290DD05329F4D0C8E767
:100240006929F1D003D86829C3D1022304E06C29BD
:10025000EAD07129BDD108231800CFE7012302207D
:10026000CCE701230820C9E792C3020010B551284A
:100270003DD011D849282ED007D8422803D048288D
:1002800026D0012806D18B5C10E04F284BD017D820
:100290004C2820D0002309E0682816D00AD864280A
:1002A00036D066282AD06228F4D18B5601205B0014
:1002B000184314E06C2803D0712811D06928E9D1C3
:1002C000920050581EF0D3FA09E05200535EEDE759
:1002D0005200535AEAE7920050581EF0E3FA10BD5C
:1002E000D2008A18106851681EF0B2FAF7E7D200FF
:1002F0008A18106851681EF0C6FAF0E703239200CE
:1003000050589843030002201843084BC018E6E7F2
:10031000D2008A181068516819F076FE0323020093
:100320009A431300EFE792005058D8E7000080800E
:10033000F7B51700156801AA04000E00FFF72EFF9D
:10034000402C05D1019B043C5A1EAA185D42154061
:100350005A213E3C62426241B14289412B183B60C6
:10036000D2B22B0049421DF082FF04000D004F2E37
:1003700008D0532E07D125F004F9002201002000F7
:100380000EF0D2FAFEBD662E06D103230224984356
:10039000154B2043C018F5E7642E06D119F034FE42
:1003A0000323040002209C43F2E75A2E0FD9802237
:1003B0000023D20512196B41002B04D1002A02DB65
:1003C0001EF055FADEE729001EF042FADAE70029AE
:1003D00005D1064B984202D81EF064FAD2E72900F4
:1003E0001EF051FACEE7C04600008080FFFFFF3FBD
:1003F000F0B589B0160005AA02931C6801900F00A1
:10040000FFF7CCFE019B0500402B06D1059B5A1E31
:10041000A2185C423C2314400193029A63191360B2
:10042000019B3E3B03935A425341DBB20293642F3C
:1004300012D0662F0BD04F2F2AD12800042D00D9BF
:1004400004203300220002991DF03AFF2CE0300016
:1004500007F002FC0600F0E7300007F0FDFB19F0A2
:1004600081FD029B0690079108AA9B00D318083BC8
:1004700022001B68029904201DF022FF039B043414
:100480005A1E934108AA9B00D318083B1E68D4E764
:10049000B3070BD1104B32689A4207D123002A00D0
:1004A000029930001EF0B0F909B0F0BD300007F03D
:1004B0006FFB0600042DC0D900215A2F02D98842B3
:1004C00000DAFF312A00200025F035F8019B3E2B91
:1004D000B3D12B1FE418B0E744580200F7B506006B
:1004E0000F0014001D0064280DD0662804D04F288A
:1004F00013D19400E35105E0940018000F1907F0A0
:10050000ABFB3860F7BD180007F0A6FB19F02AFD19
:10051000E4003F1938607960F4E703232B4001932E
:1005200011D10E4B2A689A420DD1019A0100402048
:10053000FFF734FE230043430200FB180199280013
:100540001EF062F9DEE7280007F022FB220003001C
:10055000390030001DF0C7FED4E7C0464458020001
:10056000054B10B59A6C002A04D00022986C9A644E
:1005700000F018FE10BDC046EC2C0020FF23032223
:10058000DB05CB1810B59343042804D817F030FBD3
:1005900006030F0416000021080010BD0021181CDE
:1005A00017F0FAFC0A490028F6D00A49F4E7181CAB
:1005B00018F098FC012140000143EDE78021090675
:1005C0005B18022193431943034BC918E4E7C04663
:1005D0004C8702004487020000008080FF23DB0577
:1005E00010B50400C81803239843002386B0019374
:1005F000063300931022613302A90AF05BFC02A9C2
:1006000020001EF047FB2E2102A824F0A2FF0028A4
:100610000FD1652102A824F09CFF002809D16E218A
:1006200002A824F096FF002803D1034920001EF001
:1006300031FB06B010BDC0469526030030B50C0056
:100640001100002285B01D0000920123200000F05F
:1006500063FF002C23D02868124B0340062B06D0E2
:10066000032420420ED1104B02689A420AD103A9FA
:100670000EF0B2FD00220399009213000BF0C8FBAC
:1006800005B030BD03002340022BF9D007F0E4FA97
:1006900003000220A3431843044BC018F0E70448AA
:1006A000EEE7C046070080FFD8950200000080807A
:1006B00002008080F0B5050087B01000019107F0BE
:1006C000CBFA041C0390681F182800D9BDE017F06E
:1006D0008FFA0D121F24333E6F81BCBCBCBCBC0D15
:1006E000121F24333E6F9FA8ADB2B7000198211CA2
:1006F00017F07AFD03E0211C019818F019FA019017
:1007000003230198524A9843013B03439B187CE022
:10071000211C019818F0DAF8F1E70021201C17F0ED
:100720003BFC002803D04B494B4822F0A7FC03A90F
:1007300001A81DF017FEE3E70021201C17F02CFC98
:100740000028F0D1211C019817F0E8FED7E700211E
:10075000201C17F021FC0028E5D1211C01981AF07B
:100760009FF90021041C019017F016FC002807D007
:10077000039A0023002A01DA80231B060193BFE7B6
:100780000021201C039E012717F00CFC002800D13B
:10079000071C0021301C012517F004FC002800D1A3
:1007A000051CFFB2EDB2AF42AAD0311C201C9FE75E
:1007B000019D0021281C17F0EFFB002805D0002127
:1007C000201C17F0EFFB0028ADD1211C281C1AF0CB
:1007D0004BFA94E70021201C17F0DEFB0028A2D181
:1007E00003A901A81DF0BEFD03220220019B1849A8
:1007F000934303435B180493039B934303435B18A6
:1008000004A9059314F0D2FA0300180007B0F0BD54
:100810000199201C17F0DAFB104B0028F5D1104B82
:10082000F3E70199201C17F0BDFBF5E70199201CA7
:1008300017F0B2FBF0E70199201C17F0D1FBEBE7B2
:100840000199201C17F0B8FBE6E70023DDE7C0465E
:10085000000080809FC30200648402004C87020075
:1008600044870200F0B5486887B00F0007F090F9A0
:10087000041E02DA002012F0E5FEBB68164A01935E
:100880009D186B1E9D41010002A81FF015FA049EE1
:1008900022000021300024F04EFE3868EDB2C3077C
:1008A0000AD43300220029001DF0AEFF02A90B4834
:1008B0000EF004F807B0F0BD43102000042C00D95E
:1008C00004200749019F00228F4200D0221AB2184B
:1008D00029001DF0F5FCE9E722EBFFFF409802003C
:1008E000DE140000F0B50C0087B0012203A9606897
:1008F00007F008FBA3681349039A8B420DD1012628
:10090000049976424C1E01911419049900200D009F
:10091000002D05D11DF0C6FF0DE014000126F4E7FF
:10092000094F013DB84208D908481B18581E834199
:10093000D8B21DF05AFF07B0F0BD27780002384347
:10094000A419E5E7DE140000FFFF3F0022EBFFFFE4
:1009500070B546007508041C291C281C18F0ACFA58
:1009600000280BD11649281C17F030FB002808D0AE
:10097000144915481FF054FD00F014FC134812F000
:1009800061FE002C11DA002E12D0FF23DB05E318E4
:100990009C22D20593420BD900F024FC211C0500B7
:1009A000043023F05AF8280070BDE30DDB05EFE7B3
:1009B000201C18F097FA012540000543F3E7C046D4
:1009C000FFFF7F7FC0C3020084820200D9C3020000
:1009D000F0B50C00002585B0110020001E00009528
:1009E00002232A0000F098FD0120AC422BD0844263
:1009F00031D13068204226D103230340AB4203D1DA
:100A00001C4A016891421ED01B4A0240062A06D0A9
:100A1000002B0DD10268194B92699A4208D103A9A3
:100A20000EF0DAFB00231A0003990BF075F90AE0C7
:100A3000032302001A40022A07D1FF22D2058018A0
:100A40009843FFF785FF05B0F0BD07F0A1F801233B
:100A500040001843F7E703A930680EF0BDFB04001F
:100A60007068039F07F094F82B0002003900200003
:100A7000DBE7C04644580200070080FF75F700001E
:100A8000F8B51F000B4B150059180139097817F0FC
:100A9000C3F800260400B74204D00130032117F048
:100AA000BBF80600281E01D024F06BFD0334A41906
:100AB0002018F8BDB0C30200F0B58DB00A9214AA98
:100AC000147815AA127806000F000792DA0742D5AB
:100AD0005D100023002D01DA2D236D420693139A39
:100AE000079B12992020FFF7CBFF3B6805908342BC
:100AF00004D222F0C5FD059B30603B6000213768C1
:100B0000059BFB185A1E11708D4240D00A3C099279
:100B100008920B941299280017F004F90B00303357
:100B2000092901D90B9B5B18089A541E2370079B57
:100B3000002B48D000282DD0A7422BD2099B1B1B8D
:100B4000032B05D1079B013C2370A74222D20994B5
:100B500005000894DEE79A0712D1244A19689142E9
:100B60000ED1079A02940392139A39000192129AB5
:100B700000920A9A1DF00FFE040020000DB0F0BD97
:100B80000023326813700A9A34681360F5E79C1EDC
:100B900030232370139B002B05D0180024F0F1FCA8
:100BA000201A87421FD3069B002B04D0BC4202D9D7
:100BB000069B013C23703368059A9B181B1B0A9AFD
:100BC000013B1360D9E7A742E4D20028C0D1E1E796
:100BD000C2540133139AD25C002AF9D1069B040057
:100BE000002BE5D1E7E70023F4E7C04644580200B4
:100BF0001300144A10B50400934204D101222000CE
:100C000012F028FD10BD104A934201D10322F6E7ED
:100C10000020072CF6D10D4A1A40062A0ED09A075A
:100C2000F0D11A680A4CA24208D00A4CA24205D060
:100C3000094CA24202D0094CA242E3D10A0007208B
:100C40001900DDE7448702004C870200070080FF9F
:100C5000D89502004098020024B102005C9D020079
:100C6000F8B5070008680C001EF0FDF90500606883
:100C700007F0CCF80600022F0AD9A06806F088FF1A
:100C80000200310028001DF002FC1DF0F0FDF8BD4F
:100C9000004AF6E740420F0070B50D0006F0DCFF99
:100CA000041C280006F0D8FF211C17F041FF051C8A
:100CB0001DF01FFC011C281C17F008FE211C17F05A
:100CC00093FA0323020002209A43024B1043C018F8
:100CD00070BDC0460000808010B51DF00AFC0323E3
:100CE000020002209A43024B1043C01810BDC046B8
:100CF0000000808010B5074C002802D00868A04290
:100D000003D115F0CDFA200010BD06F06DFF15F0EF
:100D1000E7FAF8E78076020010B5040007F0AAF8B9
:100D200006F036FF002803DC0021064822F0A6F971
:100D300015F090FA1DF09BFD04220100200007F041
:100D4000AFF810BDA4800200F0B5304B8FB007AEF5
:100D50000138009304310723019600F00DFC0023B5
:100D6000B0682B4F0393B84203D006F011FFC3B213
:100D7000039370691825B84202D01EF074F945B289
:100D8000B0691924B84202D01EF06DF944B230693E
:100D9000B8420DD005AA022106F0BEFF059B1868D7
:100DA0001EF061F9059B45B258681EF05CF944B22B
:100DB00001210E00A022AE40A140164BD205D7580B
:100DC00015483E430590D650D6588E43D650134A08
:100DD00003218550C450280024F025FA2000032167
:100DE00024F021FA079905A816F02CFA0A9B039A19
:100DF000089905A816F036FA0799094816F096FFE3
:100E0000084B0130188002480FB0F0BDC0590200F5
:100E10008076020014050000002000400C05000050
:100E2000C8320000642C002010B50BF067F9034BAA
:100E3000002800D1024B180010BDC0464C870200AC
:100E400044870200F7B50D0014001E00002A07D0E9
:100E50000BF054F9002805D10B23012433606442C0
:100E60002000FEBD2E002F190BF054F9741C3070B9
:100E7000BC4213D00A4B1B88009320F0B0F90190BC
:100E80000BF03CF926000028EED120F0A8F9019BD8
:100E9000C01A009B8342F3D8641BE1E73C00FBE7E8
:100EA000642C0020F7B5032633000C0053430500E3
:100EB0001800170001931CF07DFB2300A022C13312
:100EC000FF33D2059B0068602C706F809E50012319
:100ED000A340064953500022019BC318984200D1F9
:100EE000F7BD0270427082700330F7E70C05000016
:100EF00001230278F0B59340A0228B49D20505006A
:100F000085B0535032200138C046C046C046C04666
:100F1000C046C046C046C046C046C046C046C046A1
:100F2000F1D1EFF31080039072B600200290A1205F
:100F3000C0006C88029EB44204DC039B83F31088DB
:100F400005B0F0BD0326029C7443019400246F6831
:100F5000019EBC46A4446746BF5D13507F2F00D856
:100F60009FE0C046C046C046C046C046C046C046D8
:100F7000C046C04653506F68019EBC46A4446746B5
:100F8000BF5D40261350374200D195E0C046C046B1
:100F9000C046C046C046C046C046C046C046535084
:100FA0006E68019FB446A4446646F65D2027135040
:100FB0003E4200D18BE0C046C046C046C046C04657
:100FC000C046C046C046C04653506E68019FB446F6
:100FD000A4446646F65D1350F60600D482E0C0468F
:100FE000C046C046C046C046C046C046C046C046D1
:100FF00053506E68019FB446A4446646F65D135094
:10100000360700D479E0C046C046C046C046C04658
:10101000C046C046C046C04653506E68019FB446A5
:10102000A4446646F65D1350760700D470E0C046CF
:10103000C046C046C046C046C046C046C046C04680
:1010400053506E68019FB446A4446646F65D135043
:10105000B60700D46AE0C046C046C046C046C04697
:10106000C046C046C046C04653506E68019FB44655
:10107000A4446646F65D1350F60700D461E0C0460E
:10108000C046C046C046C046C046C046C046C04630
:1010900053500134032C00D059E7029C01340294D0
:1010A00047E7C0465350C046C046C046C046C0464B
:1010B000C046C046C0465EE7C0465350C046C04624
:1010C000C046C046C046C046C046C04668E7C046A7
:1010D0005350C046C046C046C046C046C046C04643
:1010E000C04672E7C0465350C046C046C046C046E0
:1010F000C046C046C046C0467BE7C0465350C046C7
:10110000C046C046C046C046C046C046C04684E74A
:10111000C0465350C046C046C046C046C046C04602
:10112000C046C0468DE7C0460C050000C04653507F
:10113000C046C046C046C046C046C046C046C0467F
:1011400093E7C0465350C046C046C046C046C0465E
:10115000C046C046C0469CE7C460056146618761E1
:101160004146C16149460162514641625946816228
:101170006946C162714681600049084785110000D7
:101180000020C046024B9A680260986000207047B9
:10119000EC2C0020024B9A6812689A607047C04697
:1011A000EC2C00200E4A9368002B01D121F0AFFEF9
:1011B000196858609160181CC46805694669876998
:1011C000C1698846016A8946416A8A46816A8B46B6
:1011D000C16A8D4681688E4601207047FEE7C04691
:1011E000EC2C002010B5102022F04AFA0400034B2A
:1011F00008C022F0B9FB200010BDC04644580200D0
:1012000070B50C00052804D816F0F2FC06030C0497
:10121000131C0024200070BD8B680E4C002BF9D1EC
:101220000D4CF7E7081D23F006F8012440000443A5
:10123000F0E7FFF7D7FF211D0500043022F021FD64
:101240002C00E7E7FFF7CEFF211D0500043022F058
:1012500028FDF5E74C8702004487020070B50500C1
:1012600083070CD1104B02689A4208D1FFF7BAFFEE
:10127000291D0400043022F0F9FC200070BD280074
:1012800006F086FCC0231B06984206D18020002170
:10129000C0051DF0DDFA0400EFE70124C317C018F4
:1012A000584040000443E8E74458020007B5C3072C
:1012B00001D540100EBD043001A914F0D3F8002868
:1012C00001D00198F6E70249024821F0D7FEC04656
:1012D00007C4020084820200F0B58BB001900120A7
:1012E0000D00170008402BD04B10022203A904A8C0
:1012F00022F072FB04AEFB072BD57B10022203A960
:1013000004A822F069FB04AD019B092B01D0162B28
:101310003FD16B68002B68D0300022F0E7FF041C3F
:10132000280022F0E3FF011C201C17F0F7F803232C
:1013300002249843704B0443E41820000BB0F0BD26
:1013400003240C4023D16D4B0A689A42F5D10E1D3F
:10135000D1E703231F4205D1684A3968914201D180
:101360003D1DD1E73B40022B0CD1654B3B40062B8A
:1013700008D0300022F0BAFF3A00011C0198FFF7B4
:1013800099F904E03A0029000198FFF731FC0400C4
:10139000D3E7019B182B00D98AE0FFF723FF040055
:1013A000019816F025FC444A3E50500D13191F7247
:1013B000336572444A3E50500D13191F7233650055
:1013C000201D2A00310022F004FDB6E7201D2A006E
:1013D000310022F038FDB0E7201D2A00310022F054
:1013E00065FEAAE76B68002B03D14649464821F009
:1013F00045FE07A822F0B8FA2B003200201D07A9ED
:1014000013F0CAFE07A822F0B4FA96E76B68002B27
:10141000EBD007A822F0A8FA211D2B00320007A864
:10142000EEE7201D2A00310022F04EFD85E7201D49
:101430002A00310022F0C4FD7FE7201D2A00310080
:1014400013F034FE79E73800FFF730FF021E02DAAE
:101450002E4812F0F7F8019B201D3100032B01D01C
:10146000102B02D113F0BAFD67E722F051FC64E7BC
:101470006B68002B03D02B78DB0700D579E7201DA4
:101480002A00310022F095FE57E76B68002BACD0A4
:10149000FFF7A8FE0700211D04302B00320013F0D7
:1014A0007BFE07A902200797089413F07FFC6EE7E4
:1014B0002900300022F0B7FB0300019800241938FE
:1014C000042800D939E7124C16F092FB0308120BDE
:1014D0000F00002B00DB30E70E4C2EE7002BFBDC6F
:1014E0002BE7002B00DD28E7F6E7002BF4DA24E7F2
:1014F000002B00D021E7EFE7000080804458020075
:10150000070080FF9FC3020064840200F2C3020050
:10151000448702004C87020010B51C0002AB1B7808
:10152000002904D0002B02D10E4812F04FFAA2423B
:1015300007D1824214D003000B490C4806F08AF907
:1015400006E0824206D9121A0949084806F082F9D3
:10155000FFF728FE844203D2030022000549ECE78E
:1015600010BDC04634C402005DC40200B083020056
:1015700096C40200C8C40200F0B50024170087B06A
:101580000C9D03900491059302940194059B9C4249
:1015900006D1019B039A934240D2254812F016FAD5
:1015A000039B9C4213D26B889B05F6D4019B049A43
:1015B00001330193A300D058FF226B88A60013408B
:1015C000012B24D106F022FC0D9B985517E0062331
:1015D00029880022C9001943380012F0DFFE0028D4
:1015E00010D16B88DB0506D52A881249124806F00F
:1015F00031F9FFF7D7FD0D9A6968A300D150013486
:101600000835C3E7029B406801330293D4E7022BFD
:1016100001D106F0BDFA0D9B9851F0E73B68029AA4
:10162000DB08934201D90548B8E707B0F0BDC046D2
:101630000EC50200F7C40200B08302002FC50200ED
:1016400010B54A6801491DF0E6FB10BD8F24030068
:10165000014B58687047C046EC2C0020014B1868BD
:101660007047C046EC2C0020F0B5194E87B03368A7
:10167000050000200C0001931DF06EFD306000900D
:10168000206821F0B0FC019B07003360114E022D51
:1016900003D0A06806F094F90600210063680831C1
:1016A000A81E039313F082FB009B04900593002275
:1016B00003AB0321300011F09FFA074B04009F4257
:1016C00003D0010038001EF0B2FB200007B0F0BDCF
:1016D000EC2C0020E0B20200807602001FB56946C3
:1016E00011F080FB0400200011F0DEFB002802D185
:1016F000044804B010BD06F089FB0028F3D102486D
:10170000F7E7C0464C870200448702001FB56946D0
:1017100011F068FB0400200011F0C6FB002802D184
:10172000044804B010BD06F071FB0028F3D0024855
:10173000F7E7C046448702004C87020010B506F068
:10174000C3F9034B002800D1024B180010BDC0465E
:101750004C8702004487020037B506F019FA01AB46
:101760007F2806D801211870012218000DF0DCF83E
:101770003EBD1E49820988420BD8402149420A4396
:101780001A703F220240802040421043587042317C
:10179000EAE7174C010BA0420ED8202464422143F3
:1017A000197080215F344942224020400A4301439E
:1017B00099705A700321D7E70E4CA04212D810241A
:1017C000850C64422C431C703F25802429406442D0
:1017D0002A40284021432243204359709A70D870F0
:1017E0000421C1E7044811F02DFFC046FF070000A7
:1017F000FFFF0000FFFF10004DC50200F0B589B0EB
:10180000019204000D0000222F490198029312F06A
:10181000C5FD0090002801D043680093012C16D02C
:10182000A4002B19002427000193019B9D4224D082
:10183000009B2E68002B04D03100180021F0DAFB49
:101840000600002C37D137002C680435EDE7002462
:1018500004A9286811F0C6FA27000390039811F034
:1018600023FB051E0CD1002C07D12200174901983B
:1018700012F094FD00281BD04468200009B0F0BD90
:10188000009B2E00002B04D02900180021F0B2FB91
:101890000600002C09D03A003100029811F0DAFE5F
:1018A0000B4B984201D025003E002C003700D5E7B5
:1018B000084811F0C7FE3A003100029811F0CAFE44
:1018C000034B9842C1D1BEE786140000D611000038
:1018D0004C8702006EC5020037B501A905000DF066
:1018E0007BFC1E4B04002B40062B05D0AB072AD1F6
:1018F0001B4B2A689A4226D1019920001EF0D2FB88
:101900000190012822D1207843B2002B04DB012072
:1019100023785B0018433EBD7F23013418403F3BD2
:10192000034208D13F22237819009143802905D032
:101930001CF09DFFEFE798435B10F1E78001134037
:1019400001341843EFE7019B012BE0D0019A0549D0
:10195000054805F07FFFFFF725FCC046070080FF24
:10196000D895020087C50200B0830200F0B51400CC
:1019700087B00290039100222349200012F00EFD4F
:10198000002205002149200012F008FD0123040077
:10199000049305931E4F002D07D068681D4B984295
:1019A00003D004A90DF018FC07001B4E002C07D033
:1019B0006068184B984203D005A90DF00DFC060095
:1019C0000024029B154D9C420AD10023059A0193E5
:1019D00000933100280001F0C5FE0E4807B0F0BDAD
:1019E000002C07D00023049A0193009339002800AB
:1019F00001F0B8FE0399A3000022C958280005F0A1
:101A0000F7FF0134DDE7C0463E1700003E1200003C
:101A1000582C0300807602006FDC0200E8600200B0
:101A200010B5040086B06A4602A8102104F014FC28
:101A300001222100684605F0DBFF02A902480CF0F4
:101A40003DFF06B010BDC046D895020070B50C68C9
:101A5000E30726D4A30703D1174B22689A4220D06C
:101A6000012820D9486806F093F80600200006F007
:101A7000F3F8051C300017F055FA011C0F4819F057
:101A8000F3F8011C041C281C16F020FF18F0C0FD00
:101A9000211C16F043FD032302249843084B044302
:101AA000E418200070BD200006F0D6F818F0B0FD54
:101AB000FEF74EFF0400F4E7445802000000204106
:101AC0000000808030B50B0085B01400012802D9D9
:101AD000094811F07BFF09480121C2680192019D6C
:101AE0000022A8472200039003A901200EF092FCD7
:101AF000039805B030BDC046DBC502005C9D020006
:101B000013B5040008000CF031FF6A460100200004
:101B100011F0EAF8009B0248002B00D1014816BDE5
:101B20004C8702004487020037B50024022800D900
:101B30008C6848680D680CF019FF0A4B0100002CF6
:101B400000D0094B6A4628009847009B002B07D01D
:101B500001991C00002903D0180009F0BFFC040003
:101B600020003EBD4D2D0100E92C010070B50400A0
:101B7000080015000CF0FAFE2A000100200011F008
:101B80000DF9014870BDC04680760200F8B5032605
:101B9000050007003540022D16D10E4B0340062BE1
:101BA00012D0FF23DB05C418B443201C002116F01B
:101BB000F9F9002806D080231B06E418B443064B2D
:101BC0002C43E7183800F8BD3800FFF747FB070043
:101BD000F8E7C046070080FF000080807FB50B005B
:101BE000012803D10021186805F01CFF102102A86C
:101BF0001EF051F80C4902A81FF0FCFA032804D18A
:101C00000A481EF000FCFFF7CDFA039B0193002B5E
:101C100003D1042801D10648F3E702A905480CF0D6
:101C20004DFE07B000BDC046DEFD02001C81020073
:101C3000787F0200D895020010B511F00DF9002848
:101C400004D103481EF0DFFBFFF7ACFA10BDC0461D
:101C5000FC82020010B5022803D00549054821F096
:101C60000DFA4A680B20096811F0F4FC10BDC0465B
:101C7000C1C502000C8202007FB50D4D0400A842D0
:101C800013D00C4E01220100300005F0B1FE0A49CC
:101C900030001CF0FFFF04230293084B0394DB6920
:101CA00002AA0321064801939847280004B070BD9A
:101CB00080760200E86002006FDC0200E89B020010
:101CC000A05C0200F8B50E0000280FD10400284BDC
:101CD0001D680021080020F0A1FD00270600BD427C
:101CE00032D10025AC423ED13000F8BD08688307F0
:101CF00014D103681F4A93420DD120F0D2FC050095
:101D0000306805F05DFE1C4BC26800249A42E0D1A9
:101D100034680434DDE7194A934201D005F050FEDF
:101D2000856B002DECD0164B2A689A42E8D000252E
:101D3000E6E7EA68FB009958002904D0042902D09C
:101D400030000EF007FB0137AB68BB42F1D8C8E7A3
:101D5000A268EB009958002904D0042902D0300071
:101D60000EF0F8FA01356368AB42F1D8BCE7C04623
:101D7000EC2C0020E89B0200E5550100E0B20200D7
:101D80002C740200F7B503780400002B1FD0402B01
:101D900020D101230193002304221E001D001900FD
:101DA00094462278002A3ED10132002910DC002D11
:101DB0000EDC002E0CDC033B934209D9013C237856
:101DC0005C2B05D00199002901D00A2B00D10022FB
:101DD0001000FEBD3F491CF0E3FD0028D9D13E496B
:101DE00020001CF0DDFD0028D3D13C4920001CF070
:101DF000D7FD0028CDD13A4920001CF0D1FD0028A4
:101E0000C7D1384920001CF0CBFD0028C1D136498C
:101E100020001CF0C5FD0028BBD1344920001CF077
:101E2000BFFD0190B7E76778272A11D1002B4DD06D
:101E3000032B09D1272F05D1A278272A04D10234F8
:101E4000243AD31A0134ACE7012BFBD80122F8E77E
:101E5000222A11D11A006046824309D1222F05D1CE
:101E6000A278222A02D102346246EAE7002B01D08E
:101E7000022BE7D10222E4E75C2A0AD1272F03D004
:101E8000222F01D05C2F04D11A00571EBA41A4188A
:101E9000D8E7002BD6D15B2A12D006D8282A0DD03D
:101EA000293A57425741C91BCCE77B2A0AD07D2AE1
:101EB0000AD05D3A57425741ED1BC3E70131C1E7F4
:101EC0000135BFE70136BDE7013EBBE7272FBDD196
:101ED000B2E7C046CFC6020012C6020018C6020012
:101EE0001CC6020069F20200174C03001C27030005
:101EF000F0B58BB0079343180390049201930093BD
:101F0000009B5C1E039BA34201D9009310E0207844
:101F100004F0F0FA002801D00094F1E7207804F0F2
:101F2000F5FA0028F8D123785F2BF5D02E2BF3D0CB
:101F30007D4B1D68009C019B9C4202D223782E2B76
:101F400021D1009BE71A019B9C4241D3002426002B
:101F500002940194AB68A34256D8019B002B00D099
:101F600084E0009B039A93422FD1704C3A002100E9
:101F7000180023F0B5FA002827D1079BE419073091
:101F80001C60C01B22E00134D5E70136AB68B342C8
:101F90001BD9F3000293EB68F20098580028F4D0A4
:101FA0000428F2D009A90DF017F9099B0100BB42E2
:101FB000EBD13A00009823F0EBFA0028E5D1EB686A
:101FC000029A9B185868002804D100200BB0F0BD7D
:101FD0000026DBE7032318420CD10368544A9342DE
:101FE00005D120F05EFB0500631C0093A2E7514A77
:101FF000934201D005F0E4FC856B002DE5D04E4BFB
:102000002A689A42F0D0E0E7EA68E300985800288E
:102010001CD004281AD009A90DF0DEF8099B0690FF
:102020000593BB4212D301003A00009823F0B0FAA6
:1020300000280BD1029B002B12D03B009E4202D302
:10204000059A9A4204D2019B01330193013481E73E
:10205000029AD15C069AD25C914205D10133EDE738
:10206000069B059E0293EEE71E00ECE7019B012B09
:1020700001D0BE4254D9029B079ADB191360F01BB2
:10208000A4E7029BEA68DB00985800283AD00428AD
:1020900038D009A90DF0A0F8099B03900593BB4225
:1020A00030D301003A00009823F072FA0190002822
:1020B00028D133000F220F33DC171440E418241109
:1020C0002401A41B012C00DC1034059A33199B1841
:1020D000402B0DD9039A194904981CF09CFE099EC7
:1020E00010E0174904981CF0D5FD019B01330193C2
:1020F000019B9C42F5DC039904981CF0CBFD099BE5
:10210000F6183619029B01330293AB68029A934288
:10211000B7D80C4904981CF0BDFD0120404255E79A
:10212000002340260293F0E7EC2C002006C60200B4
:10213000E89B0200E0B202002C7402000EC602000E
:10214000582C03006FDC02000379044AD35C002B97
:1021500000D183790248DB00C01870476A2C002048
:10216000885F020010B50400FFF7EEFF22790368D4
:102170000249034805F06EFBFFF714F820C6020081
:1021800028840200002803D001210379014AD15498
:102190007047C0466A2C002010B5FFF7D5FF034BEF
:1021A0004068C01A431E9841C0B210BD65210000AE
:1021B00070B505000C00FFF7C7FF0023A04209D04F
:1021C000436828009847044A2B79A41A034AE4106C
:1021D000D4540123180070BD885F02006A2C0020CF
:1021E00070B504000D0010491CF054FD696801220F
:1021F000200005F0FDFB0D4E200031001CF04AFDD3
:10220000A9680122200005F0F3FB310020001CF03A
:1022100041FDE9680122200005F0EAFB04492000A5
:102220001CF038FD70BDC04632C6020039C602003F
:102230001F0E030070B5060010200D00140021F0E1
:102240001FFA034B466085600360C46070BDC046E2
:10225000E85F02000021F0B5070087B081641CF040
:1022600020FCFB693C6ABB637B6AFC63002B05DADC
:102270003A00062140321170013306E0002B07D0EE
:102280003A00052140321170013B7B6207B0F0BD7E
:10229000002833D0BB6A002B30D1390004334031E1
:1022A0000B703A6BAE4B786BD3185B001B5A013C3A
:1022B0009C42EBD017D9F96A8A4207D3083149000A
:1022C00021F0FCF9FB6A78630833FB623B6B5A1C14
:1022D0003A637A6B5B009C527B6ACDE7013B3B63C0
:1022E0007B6A013B7B623B6B9D4A9A185200125AF3
:1022F0009442F3D3CAD002230B70C7E73C69631C36
:1023000003D1002240373A70C0E738001CF071FB5F
:102310000490002800D129E13B00403305930023BD
:10232000059A13703B69752B5AD0622B07D17B69D4
:10233000722B5CD001240B230022019208E0722B47
:1023400051D17B69622B52D0049B012401930A2353
:10235000390040310A78002A4ED10B70002C07D08A
:1023600038001CF06EFB022C02D138001CF069FB17
:102370003B690293222B01D02723029338001CF0E3
:1023800060FB0123029A03933B6993420BD1130034
:102390007A69934207D138001CF053FB38001CF0D7
:1023A00050FB0323039300263C69631C00D1CEE05D
:1023B000039B012B02D10A2C00D1C8E0039B9E4253
:1023C0001DD33800310044301DF009FD01213800D3
:1023D0001CF067FB38001CF00CFB0028A2D155E76D
:1023E00001240A23A8E700240A230194B0E7049BF0
:1023F000022401930B23ABE79A42AFD046E7029B3E
:10240000A34209D1380019004430013603F030FFEF
:1024100038001CF016FBC7E75C2C00D091E03800B8
:102420001CF00FFB019B3D69002B06D038005C219E
:10243000443003F01DFF2C0071E0622D51D030D8E4
:102440004E2D77D01AD8222D29D0272D27D000261F
:102450000A2DDDD02C00303C0326072CE6D87B6902
:10246000303B072B5BD8013E002E58D038001CF0C3
:10247000E8FA3B69E400303B1C19F0E75C2D0ED014
:102480000724612D21D0552DE4D13B0040331B782A
:102490000B2B2ED138005C21443003F0E9FE2C00D8
:1024A00013E0742D1FD007D86E2D1ED0722D0BD0C7
:1024B000662DCFD10C2408E0762D18D0E5D3022666
:1024C000782DC7D1002428E00D243B0040331B7831
:1024D0000A2B32D138002100443003F0C9FE002617
:1024E00096E70824F1E70924EFE70A24EDE70B2437
:1024F000EBE70826752DE5D1043EE3E738001CF034
:10250000A0FA3D69280004F00DF8002800D144E14C
:1025100028001DF0E9FD24012418013EEED200261A
:10252000631C00D174E70F4B9C42CED90122059B5E
:102530001A70D4E70C4811F077FAFF2CF6D80B2B61
:10254000F4D13800E1B244301DF005FCC7E7039B2D
:102550009E4200D335E73B00032240331A7030E738
:10256000FFFFFF7FFFFF10007DC60200200003F089
:10257000C1FF041E386903D15F2801D07F2842D9EA
:102580003D0007233C0040352B704434C1B220008D
:102590001DF0E1FB38001CF054FA3869431C1BD1D4
:1025A00020001DF0C6FB002406007E4FA300F95852
:1025B000300022F0DCFF00281ED10D34E4B22C7074
:1025C000102C00D062E6784BA8331A680D23002A3D
:1025D00000D102332B7059E603F08CFF002808D19C
:1025E00038695F2805D07F2803D803F08FFF0028C3
:1025F000D6D03B69D9B2CAE7002800DA46E60134F2
:10260000222CD3D142E603F081FF00280FD03E00F8
:10261000396940362E2916D1092333703D004435DF
:10262000280003F025FE38001CF00BFA31E03B696E
:102630002E2B04D1786903F069FF0028E7D100252B
:102640005A4C02234AE0082333703029E6D17A69D4
:1026500018331343623B0024162BDFD8544CDC4064
:1026600001231C40DAE7002C17D1030020229343FA
:10267000452B12D13C3B33706521280003F0F8FD57
:1026800038001CF0DEF9396902220B002B3B934322
:10269000C6D03869431CE6D1F8E503F02BFF0028CB
:1026A00005D039692E290BD109233370B8E7386971
:1026B00003F02CFF0028F4D13B692E2BF1D0E5E587
:1026C0000B00202293434A2BAAD1EDE7633E9E43A1
:1026D000F6B272425641A419013501342678002E13
:1026E00002D03A69B242F1D138001CF0AAF9002EAA
:1026F00002D14037012206E6212E08D13B693D2B4D
:10270000F7D138001CF09DF940374122FBE52E2E11
:1027100012D13C003B6940342E2B02D17B692E2B19
:1027200002D04A232370B1E538001CF08AF9380042
:102730001CF087F90C23F5E72A00013426780221E2
:102740003300633B8B43DBB2002B0ED163783969D6
:102750000135994207D138001CF073F92A00652E23
:1027600003D00234EAE7632EFBD1124B9B5C3A00A4
:1027700040321370190004229143422901D0442BA6
:1027800003D1BB6A0133BB6280E5432902D0452BEC
:1027900000D07BE5BB6A013BF5E70122059B040005
:1027A0001A7092E624600200EC2C00203CC6020065
:1027B0000120400003C70200F7B501911149040050
:1027C000170000251CF066FA7B68AB4204D80E495E
:1027D00020001CF05FFAF7BD002D03D00B4920004C
:1027E0001CF058FA019BAE009A5909492000BE1905
:1027F0001CF011FB0122B168200005F0F9F8013549
:10280000E2E7C04637C602001F0E030039C60200C9
:102810002DC70200F8B5050010200C001F0016009F
:1028200020F02EFF054B44608460A4190760C4604B
:102830006B60034B2860AB60F8BDC046FBEB01004A
:1028400011EC01000139C9B2054B401880301970F4
:10285000044A03781370044AD25C044B1A70704720
:102860008B2C00208C2C0020F0D802008A2C002019
:102870000131C9B2054B401880301970044A037801
:102880001370044AD25C044B1A7070478B2C0020E2
:102890008C2C0020F0D802008A2C0020074B984294
:1028A00006D9074B1818074B4118C9180878704704
:1028B000054B18184118054BF7E7C046A4920000D5
:1028C00031D702005B6DFFFF45C702000083FFFFA9
:1028D00003002022F0B57F254F265F2780330400B8
:1028E0001A7089B003007F3019780A002A406F2AD5
:1028F00026D90A003A401900013381310A70984202
:10290000F2D17F22B64B1A702300643AFF331A705B
:10291000E4320292531CB348DBB204930370E31811
:1029200080331B78B0490B705B2B0ED19B22029B2E
:102930000A700133DBB20370E254012009B0F0BD2C
:102940005F2AD8D90A003240D5E72E2B13D10232A4
:10295000D2B20270A21880321278A1480270A34845
:10296000825C0120024206D1029A0B701218D2B288
:102970000292A354CEE10220994A13709B4AD25C82
:10298000104000D0A1E0002A15D1964820320378EB
:102990000A70E31880331A70029B0133DBB2029392
:1029A0000370782B01D8E254B4E19B23029AA3541C
:1029B000049B0B70C1E716007F2552B2AE430E7028
:1029C000002A03DB8A4B8B4A1A60B7E7413B8A4AED
:1029D000DBB28A49D25CCB5C120213430393039BA4
:1029E000002101339BB218000393FFF757FF030642
:1029F000F5D5012300260127794D2B703900039866
:102A0000FFF74CFF7B1CDBB2019328285FD1002E1F
:102A100000D02F702D780135EDB229000398FFF713
:102A20003DFF6B1CDBB2292854D17F260693069903
:102A30000398FFF733FF069B30400133DBB23D289C
:102A40004AD10026684B049A1870664B1A70644B82
:102A5000019A1A70049B0593059B0199E318803332
:102A60001B7803980793FFF719FF079B9842B6D18D
:102A7000019B0133DBB20193AB422FD1002E02D078
:102A8000584B059A1A70049D013FFFB2544B390010
:102A900003981F70FFF702FF534E030600D509E1AC
:102AA000504B7F211870514B1B5C1A005BB28A435C
:102AB0003270002B18DA4B4B013DEDB21D706319DB
:102AC00080331B789842DFD089E74D4B86E701269B
:102AD000019F93E71D00A0E70693A8E7059B012649
:102AE0000133DBB20593B7E7307020281BD02328D1
:102AF00025D02E282CD0262832D040284ED05E2833
:102B000056D02B285CD03A2800D02EE12026290070
:102B10002000FFF797FE344A137833401370B3D088
:102B2000304B1D78F3E729002000FFF78BFE0023D0
:102B3000F356002B00DA52E72A4B1D78A4E7290050
:102B40002000FFF77FFE402233781342F4D146E79E
:102B500029002000FFF776FE33781B07ECD43EE710
:102B600029002000FFF76EFE1022337813403370E7
:102B7000E2D11C4B1B78E11880310978317048296B
:102B800000D02CE7013B1749DBB20B70E318803310
:102B90001B789343432B00D021E7CDE72900200089
:102BA000FFF750FE0422337813403370C4D116E788
:102BB00029002000FFF746FE33789B06BCD40EE7C1
:102BC000084B013DEDB21D70651980352B78452B02
:102BD000B2D010229343492B00D000E7ACE7C046A7
:102BE0008C2C00208B2C00208A2C0020F0D8020096
:102BF0000800002031C7020076D902005CD902002B
:102C0000A59200006B1C924ADBB21370E31880336C
:102C10001B7890490B70452B36D1A81CC0B22318E5
:102C200080331B788C4E33708C4EF656002E02DBB0
:102C3000874B1D783FE010700B70522BF8D0532B50
:102C4000F6D0442BF4D04C2B08D10335EDB21570DF
:102C5000651980352B78592BEAD0C0E6462B00D079
:102C6000BDE6EB1CDBB21370E31880331B780B70EE
:102C7000552B00D0B3E60435EDB2157065198035DB
:102C80002B784C2BD4D0AAE6492B00D0A7E6AB1C5E
:102C9000DBB21370E31880331B780B704E2B00D01F
:102CA0009DE60335EDB21570651980352B78472BFD
:102CB000BED094E6059D019B03980133DBB20193DE
:102CC000019A654B11001A70FFF7E8FD019B069A07
:102CD0005F4F934220D100257F272E000199039852
:102CE000FFF7DCFD03003B403D2B04D0029A01328C
:102CF000D2B20292A354019A0132D2B2010600D498
:102D0000A2E0002E02D0544A01991170514A13706A
:102D1000059B0493049AFDE5504B7F211B5C4D4EAF
:102D20001A005BB28A4338703270002B08DA013522
:102D3000EDB2631980331B783D708342BBD04EE601
:102D40003070202816D023281ED02E2826D02628E2
:102D50002DD0402848D05E2851D02B2858D020268E
:102D60003A2864D0252800D14CE73D4B3D4A00204D
:102D70001A60E3E529002000FFF77AFD0023F356EF
:102D8000002B00DB54E72AE629002000FFF770FD46
:102D900040223378134200D04AE720E62900200081
:102DA000FFF766FD33781B0700D541E717E62900DA
:102DB0002000FFF75DFD102233781340337000D000
:102DC00036E73B78E118803109783170482900D026
:102DD00005E60133DBB23B70E31880331B78934385
:102DE000432B00D0FBE523E729002000FFF740FD3F
:102DF000042233781340337000D019E7EFE529003F
:102E00002000FFF735FD33789B0600D510E7E6E597
:102E10000135EDB23D70651980352B78452B00D119
:102E200006E710229343492B00D0D8E500E729009C
:102E30002000FFF71DFD074A13783340137000D1BF
:102E400039E7034B1D78F2E70192012646E7C046B9
:102E50008B2C00208A2C00208C2C0020F0D8020023
:102E6000080000203BC702000022104B10491A60E6
:102E700003001233FF3341185A701A7004338B4227
:102E8000FAD101000300002209310833FF311A7022
:102E90009A705A70DA7004338B42F8D1C3237F22C0
:102EA0009B00C254034B044A1A607047340100204F
:102EB000110300000800002090D90200F0B50026A0
:102EC0007E24320031009300C318FF335F7C7F2FD4
:102ED0004CD09B7CF618F6B2531CDBB2EF2E2AD9ED
:102EE000C1267D25B60086193700AC469C4516DA0A
:102EF0009B00C318FF3359749974D97419757D23D5
:102F00000232D2B2934211DA9300C318FF335C74D9
:102F10009974D974197500260132D2B2D3E73D688D
:102F2000043FBD6001256D42AC44DFE73568013BDD
:102F30007560043EE6E77D2FEED80D4DEF5D01256F
:102F40002F42E9D0C1227D26920082189E4208DAE3
:102F50009A008218FF3254749174D17411751A005A
:102F6000D9E71568013E5560043AEFE7F0BDC04669
:102F700073DA020070B5002140250D4C8B00C31898
:102F8000FF335A7C7F2A11D0A25C0131C9B22A4298
:102F9000F4D05A7D7F2AF1D0A25C7F2AEED9DA7D67
:102FA00056B2002EEADD0132DA74E7E770BDC046A2
:102FB00022DA02000300F7B500214B4A1333FF3336
:102FC0008218197004339A42FBD1FC2300249C46DA
:102FD0002200844453B2002B04DA444B444A1A6062
:102FE000002008E063461F69BC4205D37F234432BA
:102FF000920013540120FEBDDE68355D602D01D9BD
:10300000203DEDB2611CC9B28F4251D0735C602B80
:1030100001D9203BDBB2232D4DD1303B092B02D906
:10302000324B344ADBE70234E1B28F4204D8FF2B43
:10303000F6D843700C00CDE7745C2500303D092DB7
:10304000F5D80A256B430131303BE318C9B2ECE7F0
:103050000136512E30D10023274C1F5DDEB22A2FBE
:103060000CD1264FFF5CAF4208D19300C318FF3349
:103070005E74447801321C75D2B2DBE70133512B08
:10308000EBD11F4C493B08342678AE4208D0013CB6
:10309000002B02D1154B1B4AA1E7013BDBB2F3E742
:1030A000002BF7D014004334A4000419A370C1E727
:1030B000232DB5D000230026F7B201970F4FF75DFF
:1030C000AF42C5D10C4FF75D2A2FC1D09F42BFD16F
:1030D00093000199C318FF335974417801320234C7
:1030E0001975D2B2E1B2A5E7120300000800002072
:1030F00093D90200A5D90200B2DB020061DB020015
:1031000003DC0200B3D9020010B51130084A0949A6
:10311000FF3003787F2B00D110BD02240457002C10
:1031200003DCCB5C43700430F3E7D35CFAE7C046C2
:1031300011DB0200C1DA0200F0B50023070085B000
:103140009E00BE193100FF314A7C9C467F2A01D186
:1031500005B0F0BD4F4B02209C5C63460133DBB2EF
:103160000442EDD0012560462C4242D15419E0B210
:10317000009049487C35801840780190C87C097DD2
:1031800002900391C1218900791808009D4226DA36
:103190009B000098FB18FF3358740198941C987496
:1031A0000298E4B2D874039818753B4863468218B5
:1031B0003000FF309578027D023300927D22C67C7C
:1031C000DBB29A4210DA9B00FB18FF335C749D74EB
:1031D000DE74009A1A7563460333DBB2B0E7046805
:1031E000013D44600438D1E70868013A4860043979
:1031F000E7E70130C0B2010044318900C95D002910
:10320000F7D07F2908D008242248405C204297D17B
:103210002439012900D893E73000511CC9B200912C
:103220001D49FF30891849787D250191C17C0291A3
:10323000017D0391C121890079180C009D421FDA9C
:103240009B00009CFB18FF335C74019C124D9C7426
:10325000029CDC74039C1C75941CAA186346967827
:10326000027D023300927D22C57CDBB2E4B29A4239
:103270000BDA9B00FB18FF335C749E74DD74A8E7C7
:103280002668013D6660043CD8E70868013A48605A
:103290000439ECE722DA0200C1DA0200F7B50022B5
:1032A0009300C318FF335C7C002C03D10132D1B2F0
:1032B0000A00F5E77F2C00D126E1102693490D5D29
:1032C000511CC9B2354227D0DC7CAD06ED0FA446B7
:1032D0002C00C1251434AD001F7D019445196D36B5
:1032E0008E4214DA8D00019C4519FF356C74002460
:1032F000AC7464462F75EC745C7C352C00D0C5E052
:103300005A7B834CA25C5207D2D5102285E02C68F0
:10331000013E6C60043DE3E74E2C1CD118220D24C5
:10332000DD7C5C741E7DC1239B00C31870348C420D
:103330000CDA8B00C318FF335A740022DD749A74C0
:103340001E75B5E71B22EAE71C22E8E71F68013C6F
:103350005F60043BEBE74F2CF4D0502CF4D06DB2FF
:10336000002D2BDADD7C002D28D00D004435AD007A
:103370002D5C002D22D1961CF5B20195AD004519AA
:10338000FF356F7C7F2F19D0604EF75D7F2F15D9E9
:10339000EF7C002F12D0C1237D229B00C318019C1B
:1033A000944206DD1F236B740023AB74EB742B7502
:1033B0007EE71C68013A5C60043BF0E7172C2ED1D5
:1033C0005C7B013AD2B2452C1DD11B3C5C731500CD
:1033D0004335AD004D4C2D5C655D7F2D00D867E712
:1033E0000132D2B292008218FF32557C002D00D1FA
:1033F00080E0645D7F2C00D85AE7D27C002A00D0A0
:1034000056E71E3209E0392C01D10D3CDEE73F4A78
:10341000125D7F2A00D84BE712225A7448E7182C15
:1034200007D15A7B394CA25C7F2A00D840E713228F
:10343000F3E7202C05D15A7B3C2A00D038E7163A16
:10344000EBE7482C15D15C7D7F2C02D14B245C74BA
:1034500003E02E4D2C5DA406F8D55C7C2B4D2D5D34
:10346000ED0700D448E75D7B202D3CD10C3C5C741B
:103470001EE73C2CF1D15A7D7F2A00D118E7234C5E
:10348000A25C920600D513E73F22C6E72A2C16D18C
:10349000DA7C1C7DC1237D259B00C3188D4209DA8F
:1034A0002B258B00C318FF335D740025DA749D74DF
:1034B0001C75FDE61E68013D5E60043BEEE72C2CAA
:1034C00011D1DA7C1C7DC1237D259B00C3188D4260
:1034D00004DA8B00C318FF332D25E5E71E68013D94
:1034E0005E60043BF3E7452C00D170E7392C00D037
:1034F000DEE66CE7527D7F2A00D1D9E6A25C7F2A06
:1035000000D8D5E61E2288E7F7BDC04622DA0200C1
:1035100073DA0200F0B50022060085B013004433D0
:103520009B009B5D7F2B31D05B4CE35CDB072AD596
:103530001300511EC9B244318900584F7118013B24
:10354000DBB2002B23D008787F2803D0385C043905
:103550007F28F4D999007118FF31487C7F280ED05C
:103560002027255C3D4204D04C4D285C0425284290
:1035700005D0887C4508AC4601306044887401332E
:10358000DBB29342E6D10132D2B2C7E70023022771
:1035900012E06B0708D4EB070DD56246FF32937C2F
:1035A000D9085B1A937406E0039B039A9B7B9908E6
:1035B0000133CB189373029B9A00B2181100FF31AC
:1035C00094464A7C7F2A64D034485D1C845CEDB20A
:1035D000029565B2002D21DA029A9200B218FF32EC
:1035E0000392527C0192855C019C2A0041257F2C2C
:1035F00000D0150040242242CBD1019C123C012C6A
:10360000D9D840220233DBB244339B009B5DC35CBC
:103610001342D0D08B7C013B8B74CCE71E4DAA5C4F
:1036200008252A420ED0029B9B00F318FF335A7CD8
:103630007F2AC0D0825C3A42BDD006229A7405220D
:103640009A73B8E73C421AD00133DBB21A00443215
:103650009200925D002AF7D07F2AACD00F498A5C95
:103660003A42A8D09B00F318FF339A7C52080132EB
:103670009A746246FF32937C5B08013392E7102311
:103680001A4298D04B7BC35C3B4294D08B7C023B6C
:10369000C2E705B0F0BDC04673DA020022DA0200CC
:1036A00070B50400FFF7E0FB2000FFF783FC230068
:1036B0000022FC33DA601A61904226D02500224EA7
:1036C00011353368FF35934203D029001F4800F0BD
:1036D00097FC2000FFF7E2FD2000FFF74BFC2000E5
:1036E000FFF712FD2000FFF715FF2000FFF724FD74
:1036F000C4222B009200A1181A78502A06D97F2ADA
:1037000007D00020124B134A1A6070BD04338B425D
:10371000F2D13368002B02D00F481AF081F8200054
:10372000FFF7CCFB3368002B03D029000B4800F0D7
:1037300067FC20001BF07CFA054B0949186821F052
:1037400016FF43425841E0E744010020CAD9020075
:1037500008000020D9D90200FFD902000FDA0200C8
:1037600090D90200F0B587B0039205910D9A0399A4
:103770000500521A0CA9097820200C00844339D086
:1037800030293BD00CA902910121802401911C40D9
:1037900036D0D40FA4186410171B002C37DD260078
:1037A000019B0493B34200DD04966B68049A02996E
:1037B00028689847049BF61A002EF1DC039B002B27
:1037C00006D01A0005996B6828689847039BE4188F
:1037D000002F0CDDE419019EBE4200DD3E003200E8
:1037E000029928686B689847BF1B002FF3DC200004
:1037F00007B0F0BD074902911021C6E70649FAE774
:1038000001271F4001D11400C7E71700D6E70024A5
:10381000D4E7C0461EDC02002FDC0200F0B593B0F6
:103820001C0018AB20CB05901B780F0016000793E7
:10383000CB070BD48B0703D1854B0A689A4205D07E
:10384000380004F0A5F901274000074381231D42F9
:1038500009D1079B302B06D11A9B1B9A934200DAA1
:103860001A9200231B9338001AF0DEFF0AAA1300F5
:10387000002806DBAB070FD52B231370123B04AADD
:103880009B18E1B2EA0615D5022E0CD130221A702F
:103890004A1C5A7002330DE013006A07F1D520224A
:1038A0001A701923EBE7082E3BD130221A70AA05B3
:1038B00034D4013300220AA81A701B1A2C20069354
:1038C000AB06DB1718400EAB0B9310230C931B9B1E
:1038D0000D92012B01DD40231D43402404ABDA751A
:1038E0002C400390029123D03B00019200960DAA38
:1038F0000CA90BA8FDF7E0F8037807002D2B00D0EA
:103900008EE004AAD3750D9B1B9A013B01370D93E2
:10391000012A00DD97E00026340035E00A000E326F
:10392000B7E7102EC6D130221A700A001732B0E75E
:103930000AAB019300963B000DAA0CA90BA8FDF75A
:10394000BBF81B9B07002600012B1DDD0D9B1B9C5C
:103950009C4200DA1C001A9BA3425EDD01261C1B60
:103960002E4001D02600002401239D432F330793CE
:10397000002C09D0103B0093002301941A00354914
:103980000598FFF7EFFE04006B0621D5172104AB65
:10399000C9180B78002B0AD0002301220093019252
:1039A0000598FFF7DFFE1A9B2418013B1A93069B2C
:1039B000002B0DD0012301930023069A00930AA93E
:1039C0000598FFF7CFFE1A9B069A24189B1A1A93A4
:1039D0001B9B012B01DC1A9B1B931B9B0D9A0193D4
:1039E000079B3900009305982B00FFF7BBFE2418B6
:1039F000002E09D020230093002301961A001549B8
:103A00000598FFF7AFFE24180B980EAB984201D033
:103A10001FF065FE200013B0F0BD00263400A3E7C0
:103A20001B9B012B00DC76E70D9B1B9C9C4200DA64
:103A30001C00172304AA9B181B78002B00D001340C
:103A4000069BE41887E71B9C9C42F8DA1C00F6E70B
:103A500044580200DEFD0200F0B506001400002705
:103A60008DB00D002B78002B15D1A94217D30B7800
:103A7000002B00D148E14B1C049320230025302269
:103A8000082104200893049B1B78002B11D1069376
:103A9000013B07935FE0252BE7D00135E2E76B1A86
:103AA00004931A00306873689847049B2900FF1834
:103AB000DDE72D2B05D12C3B1D43049B01330493E3
:103AC000E1E72B2B01D1293BF6E7202B01D1054360
:103AD000F3E7212B01D10D43EFE7302B2CD110332D
:103AE0001D430892E9E7069A4A43D318303B0693F0
:103AF000049B01330493049B1B781A00303A092A73
:103B0000F1D92E2B47D1049B5B782A2B18D0049B2C
:103B10000A210133049300230793049B1B781A00A6
:103B2000303A092A17D8079A4A43D318303B0793EB
:103B3000049B01330493F0E700230A210693DAE79C
:103B4000049B02330493236804340793DB43079AEE
:103B5000DB171A400792049B1B786C3B5A42534177
:103B6000049AD31804931B780593002B00D1CBE063
:103B7000642B00D1A1E022D8502B29D00ED8453B90
:103B8000022B00D8A9E00122049930687368984795
:103B90000137099452E001235B427AE7059B622BCF
:103BA0003CD057D8582BEED1231D0993069B019585
:103BB0000393089B029341230093313B7BE0059BD9
:103BC000712B53D00FD8672B00D886E0702BDAD139
:103BD000231D0993069B01950393089B0293612380
:103BE0000093513B67E0059B752B5AD0782BEFD0A3
:103BF000732BC8D1231D24680993002C49D0079B3F
:103C0000013303D1200021F0BCFC0790069B079AEA
:103C10000193089B210000932B000BE0231D0993C7
:103C20002368002B0ED0069B04220193089B384981
:103C300000932B003000FFF795FD3F180499099C75
:103C400001310EE7069B05220193089B3149009341
:103C50002B00EFE7231D099323680BA90B70069B2C
:103C600001220193089B00932B00E3E7231D0BA97E
:103C7000206809931BF018F9079B0100013301D15B
:103C80000B9B0793069B079A0193089B00932B00BD
:103C9000D0E7069B06220193089B1F4900932B0047
:103CA000C8E7231D0993069B01950393089B029384
:103CB00061230093573B00220AE0231D0993069BD2
:103CC00001220393089B0195029361230093573BC4
:103CD000216830001AF0EDFFAFE7072307349C435B
:103CE0002300206861680833099316F08DF9079B5B
:103CF000011C0293069B059A0193089B30000093D8
:103D00002B001BF043F898E738000DB0F0BDC0461B
:103D10000CDC020011DC020017DC0200074B5B69BF
:103D2000002B01D1180006E05A68824204D8801A9C
:103D300004308000C05870471B68F1E7EC2C00206D
:103D400070B5144D04006B699868DB68834215D325
:103D50000230C0001FF0A1FC6B69002803D19868F5
:103D600040000FF059FC5A68D96803609B685218EC
:103D70005B00836000234260C36068616A69D36846
:103D80005068591C04339B000138D16040189C5086
:103D900070BDC046EC2C0020074B4118884204D36C
:103DA000D8B2002800D1013070475A01D3180278E8
:103DB00001305340F2E7C04605150000034B044AAA
:103DC0005A6100229C331A607047C046EC2C0020D8
:103DD000F0600200F0B585B001900E00FFF7DCFF47
:103DE000144B02905C69002C01D120001EE02700DA
:103DF00010373D00E3689B00FB180393039B9D4233
:103E000001D32468EFE72868029A037893420FD120
:103E10004378B3420CD102303200019921F060FBAB
:103E2000002805D1ED1B6068AD10281805B0F0BD65
:103E30000435E3E7EC2C0020F0B585B00390019148
:103E4000FFF7C8FF002861D1314D019B2F009C373F
:103E5000DC1C3B68002B18D02E002E4AA0361268BE
:103E600031680292A2188A420FD902006118180024
:103E70001FF031FC0290002822D1264B0200196865
:103E800038681FF028FC029B3B602B009C331B68AA
:103E9000002B20D12600802C00D2802630002F005D
:103EA0001FF0FBFB9C37386000280DD120001FF06D
:103EB000F4FB26003860002806D120000FF0ACFB90
:103EC00033681B193360E0E72B00A0331E602B0022
:103ED0000022A4331A602B00A4331A689C352D6885
:103EE000A41801990398AD181C60FFF755FF019BBA
:103EF00028701A006B70A81C039921F000FB0022A7
:103F0000019B2800EB189A70FFF71AFF05B0F0BD6F
:103F1000EC2C0020902D0020F7B51D00160000238A
:103F2000070003600B6033602B60174B00915C69E6
:103F3000002C02D0154B9C4204D133682A68D31858
:103F40002B60F7BD3B6801333B60E268009B944601
:103F50001B68009A0193634413602200E3681032E7
:103F60009B00D3189A4207D3200005F0D1FE2B689E
:103F7000246818182860DBE702CA306849780330E3
:103F800009183160EEE7C046EC2C0020F06002001A
:103F90000C4B70B55C69002C02D00B4B9C4200D1DD
:103FA00070BD2600E36810369D007519AE4201D33E
:103FB0002468F0E704CE0549023205481AF02BFFC9
:103FC000F4E7C046EC2C0020F060020046DC020062
:103FD000E86002000048704716FCFFFF0048704789
:103FE00016FCFFFF034B044A08331360034B1A60AF
:103FF0007047C0461C6E0200380100201C2B0020B8
:10400000F7B50600194D0C00280019F009FC310025
:10401000174819F08BFB174819F002FC164819F0E5
:10402000FFFBFF239B00E61821787F2901D0A642E1
:1040300006D1280019F0F4FB104819F0F1FBF7BD88
:104040006278A37850290CD80D48475C0D48405C35
:10405000019300923B0002000B4819F067FB043407
:10406000E2E70A4819F062FBF9E7C04606FB0200E6
:1040700033FB02003BFB0200C4FA0200E2FA02003A
:10408000B2DB020061DB02005CFB02007FFB02008E
:10409000F0B51D0087B006001A4817000C0019F093
:1040A000BFFB2900184819F041FB184819F0B8FB6C
:1040B000174819F0B5FBAD006519AC4204D11148A1
:1040C00019F0AEFB07B0F0BD3878A27804902068F4
:1040D00023780003400E0390E0789B0600090290CD
:1040E00020883178C004400E0190E0789B0E0007D4
:1040F000000F00901209074819F018FB043401362C
:104100000137DAE706FB020053FA020080FA0200E8
:10411000B2FA0200E4FA02000023FA21094A8900F7
:104120001360094A1370094A1360094A1160094A69
:104130001370094A111D0832D3670122CB67074B60
:104140001A707047400100208D2C00203C01002097
:104150000C0000208E2C0020EC2C00208F2C002046
:1041600010B5084B084A1978002907D1916C00292D
:1041700002D0FFF7D1FF10BD30BFF4E700221A7064
:10418000F9E7C0468F2C0020EC2C0020837F0248EA
:10419000002B00D1014870474C8702004487020081
:1041A000A02010B50F49C0054B7F5A1C002B09D128
:1041B0004C8C0D4BA3430D4C03510D4B4A775200D1
:1041C000D05A0DE010335B00CB185C88A123DB00D4
:1041D000C450092AF1D1012010F03AFD01204042DB
:1041E00010BDC04610000020F01F00000C050000AC
:1041F00054BE02000023A022E02110B583770C4BAF
:10420000D2050902D1500B48FDF7BCFF0A48FDF763
:10421000B9FF0A48FDF7B6FF0948FDF7B3FF0948A3
:10422000FDF7B0FF0848FDF7ADFF084810BDC046D8
:104230000C050000087202001072020020720200D9
:10424000287202003872020050710200807602006B
:1042500073B5041E09D11A4D2B78002B2CD01949A7
:1042600019481AF05FFE2C7073BD184D2B1DDE6FC0
:1042700003F0A6FB164B2100984214D0154B2340A7
:10428000062B05D0A30712D1134B22689A420ED1F8
:1042900001A920000AF0A0FF019B012B0CD100789E
:1042A0001CF054FC010030001AF03CFEDCE70B4926
:1042B0000B481CF0B5F8A864FFF72EFFD4E7C04602
:1042C0008E2C00209C8A020010000020EC2C002084
:1042D000FC8A0200070080FFD8950200D6FB02008E
:1042E000B0830200F7B5A123A021214AC905DB0054
:1042F000CA500123C27F0D3293401E4A8B50C37FA8
:1043000001920133DBB2032B2FD0C37702000300ED
:10431000002122333632198002339342FBD1042428
:10432000C17F154F4D000522EB5D7E195343134AA3
:104330007678D3189B190126A640B44662461B79AD
:1043400001345B00C3185E8C063516435E840D2C69
:10435000E9D101220D318A40A023A121DB05C9004A
:104360005A50828E01995A50F7BD0023CDE7C046BE
:10437000F01F00000C050000A0FB02001000002050
:1043800070B5324D8CB0AB7F002B1FD02800FFF7EB
:10439000A9FF2F4A2F4913680968063313608B421F
:1043A00007D300242C4B14601B78012B10D0022B58
:1043B00046D000232A8C6B77FF33FF331A4205D097
:1043C000E1222649D200012010F00EFC0CB070BD95
:1043D000234E331DDB6F002B04D033000833DB6F1B
:1043E000002B02D1FFF798FEE3E705F07DFA68465F
:1043F000FCF7B2FE00280CD11A4B18680EF02CFD09
:104400000400FCF7C7FE05F079FA2000FFF720FF53
:10441000CFE705F073FA019B1349186811F010FCFF
:104420000028F2D1019803F0CBFA104B984203D147
:104430000F4910481AF0EFFC019B0024B364E4E735
:104440000D4928001AF06EFDCCE7C0461000002090
:104450003C0100200C0000208D2C0020A141000018
:10446000EC2C002040010020FC820200948102001C
:1044700010FC0200E86002009C8A0200F0B50024F3
:1044800085B0154D02930AAB1B782E1D0700083529
:104490000800210001920393F467EC670EF0A2FC80
:1044A0000E4B019A18600E4BF7671A60029A0D4B7B
:1044B000E8671A700C4B1C700EF0CEFCFFF7C8FEBC
:1044C00001220A4B1C600A4B1A70039BA34201D0C5
:1044D000FFF746FE05B0F0BDEC2C002040010020A7
:1044E0000C0000208E2C00208F2C00203C0100208E
:1044F0008D2C0020F0B500242C4B8DB01D1D0833F1
:10450000DC672B4BEC6707AC40C901380093019482
:104510000523FDF731F80798636805900293237B24
:10452000257A0393234B277C0340062B05D0830772
:104530002ED1214B02689A422AD106A90AF04CFEDC
:10454000069B002B21D0012B0CD1002D0AD1002F6E
:1045500008D100781CF0FAFA0590059930001AF09D
:10456000E1FC12E0059805F07BF80590237C002B18
:1045700003D00598FBF704FE0590039B029A009375
:1045800005992B003000FFF779FF0C480DB0F0BD06
:1045900003F016FA0A4B9842E8D1002D01D1002F02
:1045A000DBD005A9012010F001FCDEE7EC2C002097
:1045B000BC6E0200070080FFD895020080760200E2
:1045C000FC8A020030B5104B89B003AC20C9013819
:1045D000009301940523FCF7CFFF02A903980AF08A
:1045E000FBFD227C237B02990092039A05F022F8BE
:1045F000237A01000093280000236268FFF73EFF42
:10460000024809B030BDC046E46E02008076020068
:104610000022074B10B51A70064B02321A70064B77
:10462000064A1B68063B1360FFF79AFD10BDC046A3
:104630008F2C00208D2C00200C0000203C0100203D
:1046400010B5FFF7E5FF014810BDC04680760200B7
:1046500010B5042901D8042A02D909480EF0F2FF46
:10466000092B01D90748F9E70524614341188A1845
:10467000137101229A40038C1343038410BDC0467A
:10468000E3FB0200F7FB0200F8B548680C000D6878
:1046900003F07EFA0600A06803F07AFA0700E068EB
:1046A00003F076FA3A00030031002800FFF7D0FF4C
:1046B0000048F8BD8076020010B5042901D8042A0C
:1046C00002D904480EF0BEFF052359434018801854
:1046D000007910BDE3FB020070B5104C050021000D
:1046E0000F48FDF765FD21000E48FDF761FD210033
:1046F0000D48FDF75DFD21000C48FDF759FD210037
:104700000B48FDF755FD21000A48FDF751FD1AF051
:104710008FFC01230848AB7770BDC046A85F02003C
:104720000872020010720200207202002872020059
:1047300038720200507102008076020070B50400E9
:10474000080003F025FA0500431002D00F480EF0D0
:1047500079FF0F492000FDF72BFD002807D0A0228C
:1047600003216379D205C133FF339B0099500123A4
:1047700062799340A022D205002D04D0A121C90066
:104780000448535070BD0449FAE7C0467DFC02005E
:10479000A05F0200807602000C05000070B50500E5
:1047A000080003F0F5F90B2303410400DB0702D4F2
:1047B00009480EF047FF28000849FDF7F9FCFF22E1
:1047C000A40092001440A0226B79D205C133FF33BC
:1047D0009B0003489C5070BD4FFC0200985F020094
:1047E0008076020010B50C490400FDF7E1FCA02220
:1047F000D205002805D004216379C133FF339B0023
:10480000D150A223DB00D0586379D840012318404F
:104810001AF02DF810BDC046985F020010B50400D4
:10482000FDF792FC084B984202D02000FDF79AFC5D
:10483000A0226379D205C133FF339B00985800074B
:10484000800F1AF014F810BD985F0200032370B5B2
:104850000B4004000800022B14D1194B0B40062B0F
:1048600010D003F0F9F915F07DFB0022154B14F080
:10487000E3FB15F007FB144B0500984205D91348DC
:104880000EF0E0FE03F084F9F5E711492000FDF792
:104890008FFC002807D0A02203216379D205C13301
:1048A000FF339B0099506079290011F03BFB002DEC
:1048B00003D108492000FDF77BFC074870BDC046C6
:1048C000070080FF0000E03FFF0300005CFC0200E7
:1048D000E05F0200905F02008076020013B50A4993
:1048E0000400FDF765FC05216846615613F0A8F841
:1048F000684613F0CBF8A0230021044ADB00D15016
:1049000019F0B5FF16BDC046905F02000070004070
:1049100010B5080003F03CF9FA239B00584311F04E
:10492000DDFA002802D002480EF08CFE014810BDCE
:1049300040FC02008076020010B5080003F028F960
:1049400011F0CCFA002802D002480EF07BFE02489B
:1049500010BDC04640FC02008076020010B5040085
:10496000FDF7F2FB0C4988420DD00C4B98420AD05F
:104970002000FDF71DFCA0220C216379D205C13374
:10498000FF339B00995020000BF080FB044B002864
:1049900000D0044B180010BDC85F0200B05F0200D9
:1049A0004C87020044870200A0230C220249DB0549
:1049B0005A5004395A5070474407000010B504009B
:1049C00002F0FEFF064B984208D0064B984205D0F5
:1049D000054B984202D005480EF0F8FF200010BDAC
:1049E00078720200D07002000C71020030FC0200EC
:1049F000F0B58FB0069242680993944603680400AC
:104A000002939B6804300093634403600E001AF025
:104A10002FFB059060681AF041FB431C636003782C
:104A2000A24A0193831C6360437800210093C31C56
:104A300063608378B5000393031D6360C37820002F
:104A4000049323001033A360059B14309A1893003D
:104A50000793C318E360079B0C331A00089320F0F8
:104A60006AFD099B009A5B190B93059B9B1A039A9D
:104A70000A939D1A2F1D009ABF00E7190123B24225
:104A800064D2019A1A4207D13300009A88498948B2
:104A900002F0E0FEFCF786FB009B03359900099BC2
:104AA000AD005918009B6519F01A10F07FF9009EAF
:104AB000043F68600022964200D070E0069B002B05
:104AC00003D1019B1B0700D4D6E002230026019AE4
:104AD0001A400992B24204D006981AF03DFB060033
:104AE00038600027029B0B9DDB680893069B9F4262
:104AF0005ED10A9B029805339B00E1180A00049DD1
:104B00000C30002D00D080E0049A92008918079A9A
:104B10002032A2188A4200D980E0143B0693009B01
:104B2000089A9B00D3180793039B9D4200D27FE015
:104B300065680DA80D951AF09BFA28180578461C93
:104B4000FF2D00D0A7E066600FB0F0BD019A1A42B9
:104B500005D00335AD00584B6519043F6B60069BCB
:104B6000002BA7D1019B1B07A4D4009B049A9A1A7F
:104B7000B24212D8009A049B991A32008900009B15
:104B80009A4297D29300029D58182818089D0069F0
:104B9000EB1AE31818610132F1E7330076E709995F
:104BA00008989300C958C31AE3181961013282E7C3
:104BB000009B039800221B189C462968944505D841
:104BC000099B002B1CD1CA083C490EE0089B9000B1
:104BD0001858884212D1059B013B9B1A9B00E31891
:104BE0005A69002A05D0CA083549324802F032FE17
:104BF00050E76A685A610137083577E70132DDE727
:104C00006A6830001AF0E1FAF5E71668002E02D162
:104C1000AE0086591660013D043272E7081D09682E
:104C2000002903D1121A92102649DEE7010071E72C
:104C3000069AAB00D71AE7193A69002A16D108205C
:104C400000996E180899B6008E190799C958019BEA
:104C500003420DD0049B029804339B001858043083
:104C60000FF09CFB002803D043683B6101355BE7F4
:104C700032681549D208B8E7039B002B02D01348CD
:104C80000EF0A4FE019B9B0700D451E703981AF095
:104C900063FA38604CE7ED43059BED18AD006519EC
:104CA000686901F097FB6861300047E7FDFFFF3F4F
:104CB0005DC40200B08302001CB10200C1FC02000E
:104CC00092FC0200E2FC020014FD020044FD02001E
:104CD000044B88600B60044B08004B600023CB60E2
:104CE0007047C046D4900200F1F00100044B0B6005
:104CF000037A0B71436808008B600023CB60704718
:104D0000A873020010B504000C201EF0B9FC034B80
:104D1000446003600223037210BDC046E4730200C6
:104D200010B504301EF0F5FB004810BD807602007F
:104D3000002803D0012808D0002005E007224B6896
:104D40000448934300D1044870474B68DB085B007C
:104D50001843F9E74C870200448702000B6870B5DE
:104D600006000D00181D496814000FF017FB0028FD
:104D700002D04368002B10D1022E08D1094B022C1F
:104D800006D1696808481BF044FBFCF70BFAAB68D6
:104D9000012C00D14360180070BD022CFBD1002211
:104DA0004260F8E780760200E080020070B50400FF
:104DB0000D000B7A164A9B0086B0995819F06AFFCD
:104DC0001449200019F066FF134B02AA02932B7AB4
:104DD000012613716B68019304930023059302A8C5
:104DE0001AF090F9051E05D10C49200019F052FF68
:104DF00006B070BD002E03D10949200019F04AFF0A
:104E000001222900200002F0F3FD0026E7E7C0465A
:104E100020740200B6FD0200A8730200B9FD020072
:104E200039C60200F0B513681400012287B00F687C
:104E30000D000092D90802230600FCF76DFB022E3C
:104E400012D103236868034018D101682A4AC9684F
:104E5000914213D12A68904206D0059305A968684B
:104E60001AF031F9061E01D100253EE0381D01225D
:104E700031680FF093FA73684360EFE700210DF09B
:104E8000B1FF039003980EF00FF80028ECD000213A
:104E90000DF0A8FF05000EF007F8029028000EF0B4
:104EA00003F8060028000DF0FFFF029B002B03D043
:104EB000002E01D0002802D010480EF0C3FB381D90
:104EC000012202990FF06AFA4660DBE7A368EE0060
:104ED0009E193168002907D0042905D0381D012208
:104EE0000FF05CFA7368436001356368AB42EDD83C
:104EF000034807B0F0BDC0467151000090FD0200AC
:104F00008076020030B5002585B001A90400019526
:104F10001AF0D9F8A84203D109490A481EF0AEF8A0
:104F2000636802A9083B63600368029343680393C4
:104F3000042328C002200FF039FF05B030BDC04661
:104F40006BFD0200E0800200F7B50C0015001B2885
:104F50000DD000231F2808D1081D002229000FF0C2
:104F60001DFA2C4B002800D12B4B1800FEBD03224C
:104F70002B001340114225D1284922688A4221D1B1
:104F8000002BF1D1296891421ED10093019369460B
:104F900020001AF098F801A9070028001AF093F8E9
:104FA0000600002F31D00028DED03168386802F0CA
:104FB0009DFD0028D8D07168786802F097FD002820
:104FC000E5D1D1E7002BCFD1154B2A689A42CBD13E
:104FD0006A686368534007229343C5D1019301A9CE
:104FE00020001AF070F8061E01D10A4BBDE7281DFB
:104FF000002231680FF0D2F90028B5D041687068FE
:1050000002F074FD0028EAD1AEE7024B0028ABD1D4
:10501000ABE7C0464C870200448702006874020078
:105020002C740200F7B50B681C4A04000D00934273
:1050300003D05A681A4919F0EEFE1A49200019F0F7
:1050400029FE00230127019301A928001AF03BF84B
:10505000061E0CD11449200019F01CFE2B680F4AC3
:10506000934203D01149200019F014FEF7BD002F20
:1050700003D10F49200019F00DFE012231682000F4
:1050800002F0B6FC0B49200019F004FE0122716801
:10509000200002F0ADFC0027D6E7C0462C740200C9
:1050A0008AFD02008EFD0200341103001F0E030072
:1050B00039C60200E027030010B504000C201EF0E2
:1050C000DFFA034B446003600023037210BDC04647
:1050D000E473020010B504000C201EF0D1FA034B5B
:1050E000446003600123037210BDC046E4730200F4
:1050F00010B5043000220C000FF050F9002805D143
:10510000210003481BF085F9FCF74CF8406810BDFE
:10511000E080020010B5024B08C01EF0DFF910BDA0
:105120002C740200F8B50E000700002170680DF025
:1051300059FE0E4C0500022F00D9B468706802F0C9
:1051400041FE002809D11AF007F8060028000DF0EA
:10515000ABFE011E03D13000F8BD4010F3E7331D54
:10516000012218000FF01AF94460EFE78076020080
:10517000F0B5070089B000201E000D00019219F063
:10518000EBFF0E4B040007609F4203D1042302791A
:1051900013430371019B2B430DD03368AA00B2184F
:1051A000019905A8039404931EF0A6F9681C05AAAA
:1051B00003A9FFF737FE200009B0F0BD68740200B4
:1051C00010B50C00002A03D11AF009F80A480EE0C5
:1051D000042A0DD1043000220FF0E0F8002805D198
:1051E000210006481BF015F9FBF7DCFF406810BDF5
:1051F00019F0EBFFEAE7C04680760200E08002008B
:105200000023F0B52F4E93B0050006A814003360BC
:1052100001910127FBF7A0FF2740031E35D1E206CD
:105220002DD56A68A968112019F0ABFC05002E681D
:1052300029000125019A03A806F044FBA3082B408E
:105240000022310003A809F0BFF8040003200BF08E
:105250002DF820001DF0C7FE012040420BF026F87B
:105260002C00FBF797FF002F24D02900164806F0EA
:1052700069FF3C000121144806F064FF1AE0A30610
:10528000D5D528001DF0A8FDD0E7012040420BF045
:105290000DF8002F03D001210B4806F053FF0798AB
:1052A00002F08EFB094910F0CBFC041E05D03468D7
:1052B000002FDFD1200013B0F0BD0799044802F0A1
:1052C000BBFBF5E748010020DDFD0200748302000E
:1052D000E860020010B586B0202102A880241AF0F0
:1052E000DAFC64001E481BF055FF00231D480393A1
:1052F0001BF050FF06F00EFF0128F3D002280BD15F
:1053000019481BF047FF02A81AF0E7FC0122002011
:10531000164B1A7006B010BD032802D10023039368
:10532000E8E7042804D0C1B202A81AF014FDE1E7AE
:105330000F481BF02FFF039B0193002B08D10A4855
:105340001BF028FF02A81AF0C8FC80204000E1E70B
:105350001122012102A8FFF753FF2042C5D0D9E74F
:1053600094FE02002728030038FB0200D40000202E
:1053700090D9020030B587B0202102A880251AF00C
:105380008AFC6D0037481BF005FF37481BF002FF11
:105390000024364902A803941BF02CFF01280AD1EF
:1053A00033481BF0F7FE02A81AF097FC2000314B9F
:1053B0001C7007B030BD022803D12D481BF0EAFE57
:1053C000E0E7032801D12A48E0E7042808D128486B
:1053D0001BF0E0FE02A81AF080FC80204000E8E705
:1053E000052827D124481BF0D5FE039406F092FE31
:1053F0006B46C1B2DC1D21700329E4D004290AD117
:105400001B481BF0C7FE0121162202A8FFF7F8FE79
:105410002842BDD0CDE702A81AF09DFC23780D2BC1
:1054200003D116481BF0B6FEE0E70121200006F08C
:1054300089FEDBE7039B002BAAD002A81AF079FCB7
:10544000FCF7A0FC00280BD00A2102A81AF083FC6C
:105450000B4902A81BF0CEFE0328B4D00428ECD1DF
:105460000021D1E7DFFD02002DFE020053FE020005
:1054700038FB0200D400002058FE020088FE020023
:105480008FFE02000523020070B5094C094D20680B
:10549000434309489B189B0018582B682260C0188A
:1054A0000F2319400901286000F0A2FE70BDC0461C
:1054B0004C01002034010020CC740200A839030004
:1054C00000B5080006292ED812F092FB040A101627
:1054D0001B2128009A18E223DB00D218107800BDA7
:1054E000C4329200D05C8006800EF8E7C43292008D
:1054F000D05AC004400EF2E7C4329200D0580003E4
:10550000F8E7C43292009A1890780009E7E7C432AD
:1055100092009A18D0780007000FE0E7C43292009A
:105520009A18D078F1E7024B024A00201A60D6E7B9
:1055300008000020AFFE0200A83910B504000800E2
:10554000062949D812F054FB040A141F2A343F00DC
:10555000E221A218C9005218137010BD3F210B4060
:105560001800C4329200135D8B4303431355F4E7D4
:105570007F21C432920019401948135B890103400E
:105580000B431353E9E77F21C432920019401059AD
:10559000144B490303400B431351DEE70F20C43281
:1055A0009200A2181901937803400B439370D4E73B
:1055B0000F210B401800C4329200A218D3788B43FD
:1055C0000343D370C9E70F20C4329200A218D178E8
:1055D0001B0101400B43F4E7034B044A1A60BCE78C
:1055E0003FE0FFFFFF1FF0FF08000020CDFE02009C
:1055F000F0B5D2B285B00E000293072113000B4024
:10560000013BDBB2042B02D9294C2A4D25608A4389
:105610001F02002A24D1284B3578C45C274B24096B
:10562000E443E4B22D1BDB19EDB2039308276319A1
:10563000039ADBB2D35C5A00D2B25BB20192002B68
:1056400033DA1A210320013FFFB2FFF71BFF019B52
:10565000002FF0D10134E4B2002CE7D135701AE00C
:10566000D4431749E4B2CE5C0825144B1B19DB5D0B
:105670005A00D2B25BB20192002B0FDA0521022050
:10568000FFF700FF013DEDB2019B002DF0D1013489
:10569000E4B2002CE8D1029805B0F0BD3100012041
:1056A000FFF7F0FE002EE9D0ECE706210420CAE760
:1056B00008000020BAFE020019070000450403009C
:1056C000A00A03000022F0B505000F00FF200F2400
:1056D0008BB008AB654EDA710100C43189006918DE
:1056E0008B781A09B25C234012011343CA788B707D
:1056F00013071B0FF35CA243234013431A09B25C48
:10570000234012011343CB700138E5D2E223DB00C2
:10571000EE5CB308F31ADBB20493554B1B68002B05
:105720000BD0E222C4218120D200890000013B007D
:10573000AA1869182818FEF7ABFC00244823029425
:1057400003930194009481222B1912019B181B785A
:10575000180005930723984320D008A92300059A31
:1057600007312800FFF744FF0230C4B2023FFFB206
:10577000002F78D02B780393013EF6B2002E47D14C
:10578000E2222B19D2009B181E78B308F31ADBB261
:1057900004930023029301930093D4E7354B009ABE
:1057A0009C469A5C2300C4339B00EB189978090946
:1057B0000A4331498A5C019907926246DB78525C60
:1057C0001907090F0A432C491B098A5C2B490692C9
:1057D000029A8A5C06991343079A8A182649C95C7B
:1057E00001238918FF2A00DC031CC9188823090635
:1057F0001B06C918090F0020FFF744FE039B013B5D
:10580000DBB20393002BB7D10134E4B2013FAEE722
:10581000049B013BDBB20493002B02D1059B002BC0
:1058200018D12200C4329200535D00999B069B0E52
:10583000CB18DBB20093535B0199DB045B0ECB18F2
:10584000DBB201935359029A1B035B0ED318DBB2F0
:10585000029378E708A92300059A07312800FFF78B
:10586000C7FE04008CE70BB0F0BDC046C9FF0200C4
:105870004401002095090300A10103004503030032
:10588000064B1B5C002B05D0054B185C4843C01130
:10589000C0B27047034B185CFBE7C046F10203003F
:1058A0006A0103002A000300064B1B5C002B05D095
:1058B000054B185C4843C011C0B27047034B185CDD
:1058C000FBE7C046F1020300A50A03007A000300CB
:1058D000F0B5037A8DB004007F2B00D157E10300AF
:1058E000070000250933FF330837099301953E78F7
:1058F0007F2E00D087E000230693019306998B004A
:10590000E31803931A7A481C1B7BC0B206907F2BC6
:1059100000D11BE19F49CE5C8D5C9F49AE4200D017
:10592000F1E08D5CCB5C0493039B597A019B591881
:10593000CBB20193049BEB18DBB20793023B1B062F
:10594000DCD4A827019B5D1BEBB20593A82F00D0E8
:10595000E1E0039B039A5B7A527B5B08520899183B
:105960000291019901988A18E221C31AD2B2DBB2DE
:10597000C900A218E31852185B18157818782D1A68
:10598000EDB27F222B006DB293430893EB17E8181A
:105990005840029912F0B0FA2800CBB2029909934C
:1059A00012F0C4F9059A00251600C3B20A93029BAF
:1059B0009B18DBB20B93320039002000FFF77EFD0D
:1059C0000A9B01360B9AC018F6B2C3B2964200D1B8
:1059D000B6E0099AAD18029AEDB2AA420DD8AD1AF6
:1059E00020216A4652181278EDB252B2002A00DA2B
:1059F000A4E0002B01D00133DBB2320039002000DB
:105A0000FFF79AFDD7E7012E77D12B003100019ADD
:105A1000200019F0F1FBBA78604BA1789B185B78F5
:105A200030000193FB780893FFF72AFF3F23E178CA
:105A3000034030000293FFF737FF7F22584B9B5DF6
:105A40001A40584B03929A5D0F231A400492564A0B
:105A5000925D1A400592554A925D1A4006923F2285
:105A6000534B9B5D07937B78EB18DBB20A93029B49
:105A7000134002937F23184083019C462A003F2154
:105A8000C4329200135D0F268B4302990B431355CA
:105A9000135B48490B4061460B431353039B10595A
:105AA0005903454B03400B430498190C3140000146
:105AB00013510843A21890701B0E0598B343069922
:105AC000034309011E400E43D670812263190799D2
:105AD00012019A181170E222D2009B180899019ABB
